:020000040800F2
:1000000000000220511C0008710900087309000853
:100010007509000877090008790900080000000048
:100020000000000000000000000000007B09000844
:100030007D090008000000007F0900088109000810
:10004000A11C0008A11C0008A11C0008A11C00089C
:10005000A11C0008A11C0008A11C0008A11C00088C
:10006000A11C0008A11C0008A11C0008A11C00087C
:10007000A11C0008A11C0008A11C0008A11C00086C
:10008000A11C0008A11C0008A11C0008A11C00085C
:10009000A11C0008A11C0008A11C0008A11C00084C
:1000A000A11C0008A11C0008A11C0008A11C00083C
:1000B000A11C0008A11C0008A11C0008A11C00082C
:1000C000A11C0008A11C0008A11C0008A11C00081C
:1000D000A11C0008A11C0008A11C0008A11C00080C
:1000E000A11C0008A11C000800000000A11C0008C1
:1000F000A11C0008A11C0008A11C0008A11C0008EC
:10010000A11C0008A11C0008A11C0008A11C0008DB
:10011000A11C0008A11C0008A11C0008A11C0008CB
:10012000A11C0008A11C0008A11C0008A11C0008BB
:10013000A11C0008A11C0008A11C0008A11C0008AB
:1001400000000000000000000000000000000000AF
:10015000A11C0008A11C0008A11C0008A11C00088B
:10016000A11C0008A11C0008A11C0008A11C00087B
:10017000A11C0008A11C0008A11C0008A11C00086B
:10018000A11C0008A11C0008A11C0008A11C00085B
:10019000A11C0008A11C0008A11C0008A11C00084B
:1001A000A11C0008A11C0008A11C0008A11C00083B
:1001B000A11C0008A11C0008A11C0008A11C00082B
:1001C000A11C0008A11C0008A11C0008A11C00081B
:1001D000A11C0008A11C0008A11C0008A11C00080B
:1001E000A11C0008A11C0008A11C0008A11C0008FB
:1001F000A11C0008A11C0008A11C0008A11C0008EB
:10020000A11C0008A11C0008A11C0008A11C0008DA
:10021000A11C0008A11C0008A11C0008A11C0008CA
:10022000A11C0008A11C0008A11C0008000000007F
:10023000A11C0008A11C000800000000A11C00086F
:10024000A11C0008A11C0008A11C0008A11C00089A
:10025000A11C0008A11C0008A11C0008A11C00088A
:10026000A11C0008A11C0008A11C0008A11C00087A
:10027000A11C0008A11C0008A11C0008000000002F
:10028000A11C0008A11C0008A11C0008000000001F
:1002900000000000A11C000810B5054C237833B9FC
:1002A000044B13B10448AFF300800123237010BD49
:1002B0003C04002000000000081E000808B5034BA5
:1002C0001BB103490348AFF3008008BD00000000E4
:1002D00040040020081E000880B59CB0BFF34F8F7B
:1002E000BFF36F8F684B0021C3F85012BFF34F8FDD
:1002F000BFF36F8F5A6942F400325A61BFF34F8FD8
:10030000BFF36F8FC3F88410BFF34F8FD3F88020F3
:1003100043F6E076C2F3C904C2F34E32A507520198
:1003200002EA060C284621464CEA0007013900F192
:100330004040C3F860724F1CF6D1203A12F1200FF2
:10034000EED1BFF34F8F5A6942F480325A61BFF346
:100350004F8FBFF36F8F00F079FB022000F016FD86
:1003600000230093494BDA6A22F00102DA62DB6A69
:1003700003F001030093464B9A6942F440429A61AC
:100380009A6902F440420092009A9A699404FCD55A
:100390004FF480334FF0010E0520A02102220424E7
:1003A00008251692189217941995CDE909E30023B0
:1003B000CDE9140109A80C9310931B931A93CDE96E
:1003C000122201F005F800B1FEE703234FF03F0CC5
:1003D0004FF480622146CDE901C34023CDE90305F6
:1003E00001A8CDE90533CDE9072301F00DFB00B1EC
:1003F000FEE700F0BBF900B1FEE7BFF34F8FBFF39C
:100400006F8F214B5A6922F400325A61C3F85002AF
:10041000BFF34F8FBFF36F8FC3F88400BFF34F8FCD
:100420005A6922F480325A61BFF34F8FD3F880208B
:1004300043F6E076C2F3C904C2F34E32A507520177
:1004400002EA060C284621464CEA0007013900F171
:100450004040C3F874724F1CF6D1203A12F1200FBD
:10046000EED1BFF34F8FBFF36F8F0A4B00221A609C
:10047000094B0A4A1B6813604FF01042126882F35E
:1004800008889847FEE700BF00ED00E00004005830
:100490000048025810E000E00400009058040020DA
:1004A0007B4B2DE9F04FD3F8D42091B0794D09243E
:1004B00042F480420026784F0BA9C3F8D420284686
:1004C000D3F8D4204FF040084FF00A0BDFF8D0A14A
:1004D00002F480424FF400790092009ADA6F42F4FD
:1004E0008042DA67DA6F22F48042DA67D3F8E020DC
:1004F00042F02002C3F8E020D3F8E02002F020020E
:100500000192019AD3F8E02042F00802C3F8E020FB
:10051000D3F8E02002F008020292029AD3F8E02019
:1005200042F02002C3F8E020D3F8E02002F02002DD
:100530000392039AD3F8E02042F02002C3F8E020AF
:10054000D3F8E02002F020020492049AD3F8E020CD
:1005500042F02002C3F8E020D3F8E02002F02002AD
:100560000592059AD3F8E02042F04002C3F8E0205B
:10057000D3F8E02002F040020692069AD3F8E02079
:1005800042F08002C3F8E020D3F8E02002F08002BD
:100590000792079AD3F8E02042F08002C3F8E020E7
:1005A000D3F8E02002F080020892089AD3F8E02005
:1005B00042F04002C3F8E020D3F8E02002F040020D
:1005C0000992099AD3F8E02042F04002C3F8E020F3
:1005D0004FF48062D3F8E03003F040030A930A9BA3
:1005E0000223CDE90B230323CDE90D630F9400F023
:1005F000DBFA01230BA93846CDF82C800D93CDF8FA
:100600003CB000F0D1FA4FF400630BA923480B93E0
:100610000D960F9400F0C8FA04230BA950460F94CE
:100620000B9300F0C1FA0BA92846CDF82C90CDF819
:100630003CB000F0B9FA08230BA950460F940B9375
:1006400000F0B2FA80230BA928460F940B9300F018
:10065000ABFA0BA93846CDF82C9000F0A5FA0BA9FF
:100660002846CDF82C8000F09FFA4FF480430BA968
:1006700038460B9300F098FA32460F215C2000F0C8
:100680003DFA5C2000F06CFA11B0BDE8F08F00BFBD
:10069000004402580014025800180258000C025876
:1006A000001C025800B54FF4407395B04FF04072F3
:1006B00011480C9305230F920222069300230B92FC
:1006C00006A913930093049303926A46CDE90D3370
:1006D000CDE91133102302934FF48003059340F2C8
:1006E0000113019341F2883300F0D9FD003018BFA7
:1006F000012015B05DF804FB5C04002000B54FF448
:10070000407395B041F2883217480C93062306A92E
:1007100006930023CDE90D330F930B931393CDE98B
:10072000113300F0BCFCE8B940F2022302224FF47E
:10073000800104900C48CDE900331023CDE902324A
:1007400005236A46CDE905134FF0407306A90F93C0
:1007500041F2883300F0A3FD003018BF012015B02E
:100760005DF804FB0120FAE75C0400202DE9F0436A
:100770007D4C9DB07D4B2046236000F074FC074605
:1007800008B10124ECE0FFF78BFE01250323C4E947
:1007900001351023E3604FF0006393FAA3F3B3FA3B
:1007A00083F34FF440762046E761013B2361402309
:1007B000C4E90567236200F0F7FB0028E1D14FF49C
:1007C00080774FF06609099041F2883205906946BA
:1007D0000D900697CDF80090CDE90700CDE90B000C
:1007E000204600F05CFC0028CBD14FF0990841F284
:1007F000883269462046CDF8008000F050FC002881
:10080000BFD141F28832694620460696CDF8009065
:1008100000F045FC0028B4D141F2883269462046F8
:10082000CDF8008000F03BFC0028AAD135231790BA
:10083000139041F288321B900EA914970E93CDE9C4
:100840001500CDE91900204600F029FC002898D1B8
:10085000FFF728FF002894D1B723149617900E9322
:1008600013901B90CDE91500CDE91900FFF746FF65
:10087000002886D141F288320EA9204600F00FFCF4
:1008800000287FF47EAFFFF70DFF00287FF479AFDB
:1008900085234FF440764FF04075ADF800000E937D
:1008A0000223139041F288320EA914961795CDE9D0
:1008B0001500CDE91830CDE91A002B4800F0EFFB08
:1008C00000287FF45EAF41F288326946264800F086
:1008D00085FC00287FF455AFFFF710FF0446002881
:1008E0007FF44FAF812341F288320EA91E480E9348
:1008F000BDF8003023F0F0031B051B0D43F400434B
:1009000043F08003ADF8003000F0C9FB00287FF40D
:1009100038AF41F288326946134800F003FC0028E2
:100920007FF42FAFED236A460EA90F480E934FF4C4
:1009300040631B9415934FF4405314961193052371
:10094000CDE9164513934FF000454FF08043CDE9B4
:100950000044CDE9195300F0F7FC002818BF01242A
:1009600020461DB0BDE8F0835C040020005000521A
:100970007047FEE7FEE7FEE7FEE770477047704707
:1009800000F092B81849194810B5D1F8883043F4EE
:100990007003C1F88830164B1A6842F001021A60E1
:1009A00000221A611C68204018609A61DA611A629C
:1009B0009A62DA621A635A639A63DA631A645A644F
:1009C000186820F4802018601A660A4B1B681B0CFC
:1009D0001B04B3F1005F02D2074B01221A604FF0F3
:1009E00000638B6010BD00BF00ED00E07FEDF6EA14
:1009F000004402580010005C08810051704700005C
:100A000038B50F4B0546187808B9012038BD4FF4AA
:100A10007A730C4AB3FBF0F31068B0FBF3F000F00C
:100A2000ADF804460028F0D10F2DEED80246294635
:100A30004FF0FF3000F062F8034B20461D60E5E701
:100A400008000020000000200C00002010B503204A
:100A500000F042F800F03CFF0F49104A8B69C3F3E5
:100A60000323D35C03F01F03D8400D4B18608B6940
:100A700003F00F03D35C03F01F03D840094B186049
:100A80000F20FFF7BDFF044618B9FFF7B7FF204658
:100A900010BD0124FBE700BF00440258201E0008DF
:100AA0000000002004000020034A044B11681B785A
:100AB0000B441360704700BFA8040020080000200A
:100AC000014B1868704700BFA8040020014B18684C
:100AD000000C70470010005C074A0002D36800F465
:100AE000E06023F4E0631B041B0C43F0BF6343F49A
:100AF00000330343D360704700ED00E0164B70B540
:100B0000DC684FF0FF36C4F30224C4F10705231D4F
:100B1000042D28BF0425062B06FA05F38CBF033CE1
:100B20000024002821EA030303FA04F306FA04F47C
:100B300022EA040443EA04034FEA0313DBB206DBB0
:100B400000F1604000F5614080F8003370BD00F0B6
:100B50000F00024A1354F9E700ED00E014ED00E045
:100B6000002808DB4209012300F01F0003FA00F00F
:100B7000014B43F82200704700E100E00138B0F17A
:100B8000807F0AD2064BF021064A5860002082F886
:100B90002310072298601A6070470120704700BF39
:100BA00010E000E000ED00E04FF0B04C00232DE934
:100BB000F74F724EE246DFF8D0B10A6832FA03F41A
:100BC00002D103B0BDE8F08F4FF0010E0EFA03FE24
:100BD0001EEA020200F0BD804C6824F01004022CD2
:100BE00014D14FEAD30803F007090F2500EB88085A
:100BF0004FEA8909D8F8204005FA09F524EA0505E5
:100C00000C6904FA09F42C43C8F820404FEA430861
:100C10004FF003094C6809FA08F9056804F0030469
:100C20006FEA090904FA08F409EA05052C4304608F
:100C30004D6825F01005013D012D11D88468CD685F
:100C400009EA040405FA08F525438560446824EAA6
:100C50000E0E4C68C4F300149C4044EA0E04446039
:100C6000C46809EA04098C6804FA08F444EA09042F
:100C7000C4604C68E4006CD5414D03F0030E4FF0A6
:100C80000F08D5F8F4404FEA8E0E44F00204C5F880
:100C9000F440D5F8F44023F0030505F1B04504F025
:100CA000020405F580650194019C08FA0EF4D5F85C
:100CB000089029EA0408334CA0424CD004F5806423
:100CC000A0424AD004F58064A04248D0584548D09C
:100CD00004F50064A04246D004F58064A04244D0EC
:100CE00004F58064A04242D004F58064A04240D064
:100CF00004F58064A0423ED004F58064A0420CBF9D
:100D000009240A2404FA0EF444EA0804AC60D5432A
:100D10004F683468FF034CBF14432C4034604F6865
:100D20007468BF034CBF14432C4074604F68DCF8F8
:100D30000040FF024CBF14432C40CAF800404F68EB
:100D4000DAF80440BF0254BF05EA04022243CCF89B
:100D50000420013331E70024D4E70124D2E7022440
:100D6000D0E70324CEE70424CCE70524CAE7062411
:100D7000C8E70724C6E70824C4E700BF800000587E
:100D80000044025800000258000C025838B5104CBC
:100D9000E36813F0040FE36805D103F00703181AA2
:100DA00018BF012038BD23F007031843E060FFF7A8
:100DB00087FE054663689B0401D50020F2E7FFF734
:100DC0007FFE401BB0F57A7FF4D90120EAE700BF2F
:100DD000004802584B6A2DE9F04733B1B2F1406F39
:100DE00003D08B6A0468013B23618B690C6A002B7A
:100DF00067D00568002C35D08B68EB61CC694B6AF5
:100E000005688F69D1F820C0D1F83480D1F810E09E
:100E10000E68D1E90BA9A4B144EA0A04144344EAD8
:100E2000090444EA08042343CC6843EA0E0343EA76
:100E30000C0323433B434C69334343EA84436B61D4
:100E40002AE04AEA0904144344EA0804234343EA33
:100E50000E0343EA0C033B4333434E6943EA8646A1
:100E60006E612CE04E69CC69D1F80090B604D1F8DF
:100E700024804F6BD1E90BECACB11C43CB6814431D
:100E800044EA090444EA080444EA0E0444EA0C046F
:100E90003C431C4334436C61B2F1406F0FD0036894
:100EA0004A689A610BE043EA0903134343EA0803E3
:100EB00043EA0E0343EA0C033B4333436B61BDE853
:100EC000F08744B303688C68DC61CC69D1F8248076
:100ED00005688E69D1F820C04B6BD1F810E0D1E9DC
:100EE0000B796CB13C43144344EA09042343CC68B6
:100EF00043EA080343EA0E0343EA0C0323439AE759
:100F000047EA09042243134343EA080343EA0E0372
:100F100043EA0C03A0E7CD694B6A7DB12B43CD6A50
:100F2000046813432B430D6B2B434D6B2B43CD6850
:100F30002B434D6943EA85436361ADE7002BBED087
:100F4000CC6A0068234313430A6B13434A6B134371
:100F50004A6943EA82434361B1E72DE9F041069DC6
:100F600004460F461646984621688A683A4214BFDE
:100F700001220022B24201D1002011E06B1CF4D00A
:100F8000FFF79EFDA0EB0800A84201D8002DEBD191
:100F90000423012084F84130636C43F0010363644F
:100FA000BDE8F0817047000037B50446FFF788FDC3
:100FB0000546002C4FD094F84030012B4DD0012332
:100FC00084F8403094F8412002F0FF033AB984F8E5
:100FD00040302046FFF7E6FF41F28833A3642068E3
:100FE000A1680268013922F4706242EA01222021DC
:100FF00002600022A36C204600932B46FFF7ADFF52
:1010000020BB2168E569E3680A682B43256A22F062
:101010007F422B43656822F0D00243EA0563134305
:101020000B602168D4E905324D681343226943EA15
:1010300002430B4A2A4013434B602268136843F073
:10104000010313600123606484F84130002384F8B5
:10105000403003B030BD0120FBE70220F9E700BFBC
:10106000FEF8E0FF704710B50446A0B190F840309C
:10107000012B12D00268012380F84030136823F05E
:1010800001031360FFF7EEFF0020606484F8410065
:1010900084F8400010BD0120FCE70220FAE72DE9AA
:1010A000F34704468A469146FFF70AFD94F840301C
:1010B0008046012B34D00123022784F8403094F875
:1010C0004160F6B29E4229D100220346CDF800903D
:1010D00020216264204684F84170FFF73EFF0546F8
:1010E000A8B9024651462046FFF774FEDAF82430CC
:1010F0005BB9CDF800904346324639462046FFF7AB
:101100002CFF054618B92368DF6084F8416000238E
:1011100084F84030284602B0BDE8F0873D46F6E747
:101120000225F7E72DE9F341044688461746FFF705
:10113000C7FC94F840300646012B4DD001232568AA
:1011400084F8403094F84100C0B2984242D1002364
:101150006364B8F1000F38D0122384F841302B6952
:101160000133E3622B69C4F824800133A3626B6905
:1011700023F040636B61E36A9BB900973346012219
:1011800002212046FFF7E9FE10B923680222DA6047
:10119000012384F84130002384F8403002B0BDE8D8
:1011A000F08100973346012204212046FFF7D5FE47
:1011B0000028EDD1636A1B7885F82030636A01331B
:1011C0006362E36A013BE362D5E7636C43F00803C3
:1011D0006364E0E70220DEE70220DFE72DE9F34168
:1011E000044617468846FFF76BFC25680646AA6941
:1011F00094F84030012B50D0012384F8403094F80B
:101200004100C0B2984246D100236364B8F1000F98
:101210003CD0222384F841302B690133A3632B692E
:10122000C4F83080013363636B6923F0406343F09B
:1012300080636B6123689A61A36B9BB90097334607
:10124000012202212046FFF788FE10B923680222FE
:10125000DA60012384F84130002384F8403002B082
:10126000BDE8F08100973346012206212046FFF7B2
:1012700074FE0028EDD195F82020236B1A70236BA3
:1012800001332363A36B013BA363D5E7636C43F096
:1012900008036364E0E70220DEE70220DFE72DE9D0
:1012A000F7430446984689461646FFF709FC94F82A
:1012B00040300746012B45D0012384F8403094F894
:1012C0004150EDB29D423BD142230022CDF8008037
:1012D0002021626484F8413003462046FFF73DFE3A
:1012E00040BB2368204632689A62236872685A625B
:1012F0002368B268DA62216833690A6843F48003BC
:1013000022F4400213434FF000620B604946F36839
:10131000C9F82830FFF75EFDCDF800803B462A462D
:1013200008212046FFF719FE20B923680822DA6059
:1013300084F84150002384F8403003B0BDE8F083C6
:101340000220F7E70220F8E7F7B5044617460E46F5
:10135000FFF7B6FB94F840200346012A36D001225D
:1013600084F8402094F84120012A2DD100228221C6
:101370002046626484F84110A16C00912021FFF79F
:10138000ECFD0546D0B922687968136823F008039C
:101390000B4313607B68082B0AD123683A681A63F1
:1013A00010222368DA602268136843F48013136004
:1013B0004FF0406231462046FFF70CFD002384F8D1
:1013C0004030284603B0F0BD0225F7E70225F8E7D4
:1013D000F8B5044608B9012090E00368DD075ED443
:1013E0002368980700F1AC802368DA0623D5AB4B5D
:1013F0001A69996A02F03802082A07D0182A40F0C0
:10140000008101F00302012A40F0FB801B68DB052C
:1014100002D5E369802BDED1FFF758FB41F20303CD
:101420009E4A9842216A00F2E580536823F0F8430F
:1014300043EA816353602368190700F11B81236825
:101440009A0600F1408123685D0722D5944D2B68F0
:1014500043F480732B60FFF733FB06462B68DA05F5
:1014600040F15681A2688D4B012A40F058811A6FD5
:1014700042F001021A67A368002B00F06781FFF7B2
:101480001FFB864D064641F288372B6F9B0740F1C4
:101490005681606A002840F0698100202EE07F4B71
:1014A0001A69996A02F03802102A05D0182A0AD15E
:1014B00001F00302022A06D11B68990390D56368E4
:1014C000002B8DD187E76268744BB2F5803F16D14F
:1014D0001A6842F480321A6063680BB3FFF7F0FABF
:1014E0006E4D064641F288372B689A033FF578AF78
:1014F000FFF7E6FA801BB842F6D90320F8BD3AB9E7
:101500001A6822F480321A601A6822F48022E2E714
:10151000B2F5A02F1A68F4D142F480221A60D7E7FE
:10152000FFF7CEFA5D4D064641F288372B689B03E4
:101530007FF556AFFFF7C4FA801BB842F6D9DCE757
:10154000564B1A69996A12F0380203D0182A1BD137
:101550008E0719D11B685D0703D5E368002B3FF4A4
:101560003AAFFFF7B3FA41F203034C4A98422169BC
:10157000536895BF23F47C3323F0FE4343EA0133E1
:1015800043EA016353602FE7444DE2682B680AB3D6
:1015900023F0190313432B60FFF792FA06462B68DA
:1015A000580711D5FFF792FA41F2030322699842D6
:1015B0006B6895BF23F47C3323F0FE4343EA023388
:1015C00043EA02636B600FE7FFF77AFA801B022899
:1015D000E5D992E723F001032B60FFF771FA064685
:1015E0002B6859077FF500AFFFF76AFA801B0228C6
:1015F000F6D982E7D36823F07C5343EA0163D360D2
:1016000019E7E369254D23B32B6843F080032B6072
:10161000FFF756FA06462B68DF050DD5FFF756FA99
:1016200041F20303226A98420CD86B6823F0F84316
:1016300043EA82636B60FEE6FFF742FA801B0228F2
:10164000E9D95AE7EB6823F07C5343EA0263EB6085
:10165000F1E62B6823F080032B60FFF731FA064692
:101660002B68D8057FF5E7AEFFF72AFA801B022822
:10167000F6D942E76369094DA3B16B6F43F00103EB
:101680006B67FFF71DFA06466B6F9B073FF5D7AEFA
:10169000FFF716FA801B0228F6D92EE700440258FD
:1016A000004802586B6F23F001036B67FFF708FADD
:1016B00006466B6F9F077FF5C2AEFFF701FA801BEE
:1016C0000228F6D919E7A369804D83B12B6843F44A
:1016D00080532B60FFF7F4F906462B6898043FF51A
:1016E000B2AEFFF7EDF9801B0228F6D905E72B68AB
:1016F00023F480532B60FFF7E3F906462B68990427
:101700007FF5A1AEFFF7DCF9801B0228F6D9F4E6DD
:10171000FFF7D6F9801B64287FF6A0AEEDE63AB954
:101720001A6F22F001021A671A6F22F00402A1E672
:10173000052A1A6FF5D142F004021A6797E6FFF7FF
:10174000BFF9801BB8427FF6A0AED6E6FFF7B8F926
:101750005E4D064641F288372B6F98077FF599AEAC
:10176000FFF7AEF9801BB842F6D9C6E6574D2B6994
:1017700003F03803182B7AD02B68022823F08073EB
:101780002B6067D1FFF79CF906462B6899015BD463
:10179000AB6AA26A23F47C7323F003031343E26A67
:1017A00043EA0213AB62636BA26B013B013A5B023B
:1017B00012049BB202F4FE021343226B013AC2F3FD
:1017C00008021343E26B013A120602F0FE42134391
:1017D0002B63EB6A23F00103EB626B6BA26C23F4C7
:1017E0007F4323F0F80343EAC2036B63EB6A226C86
:1017F00023F00C031343EB62EB6A626C23F00203E9
:10180000324C1343EB62EB6A43F48033EB62EB6AD6
:1018100043F40033EB62EB6A43F48023EB62EB6A40
:1018200043F00103EB622B6843F080732B60FFF7FA
:1018300047F9054623689A013FF52FAEFFF740F9B7
:10184000401B0228F6D958E6FFF73AF9801B022818
:101850009BD952E6FFF734F904462B689B017FF5CC
:101860001CAEFFF72DF9001B0228F6D945E601282A
:10187000AA6A2B6B3FF442AE02F00301A06A8142D8
:101880007FF4A9ADC2F30512E16A8A427FF4A3ADE9
:10189000226BC3F30801013A91427FF49CAD626B65
:1018A000C3F34621013A91427FF495ADA26BC3F395
:1018B0000641013A91427FF48EADE06BC3F30663BB
:1018C0000138181A18BF012018E600BF004402585A
:1018D000464B10B51A6902F03802102A00F08480D5
:1018E000182A0CD00AB1424810BD1A68414812F0BB
:1018F000200FF9D01B68C3F3C103D840F4E7996AFD
:10190000986ADA6AC0F305105C6B0028ECD007EE29
:10191000900A02F00102C4F3CC00B7EE006AF8EEC0
:10192000E76A424307EE902A01F00302012AFAEE29
:10193000E97A02D00FD3022A48D01B6BC3F3080305
:1019400007EE103AB8EEC77A77EE277A77EE867A06
:101950009FED296A37E01A68920627D51968254A4B
:10196000C1F3C1011B6BCA40C3F3080307EE102A81
:10197000F8EEC75A85EEA67A06EE903AF8EEE66AD9
:1019800076EEA77A77EE867A184B67EE877A1B6B2E
:10199000C3F34623013307EE103AF8EEC76A87EE29
:1019A000A67AFCEEC77A17EE900A9DE71B6BC3F38D
:1019B000080307EE103AB8EEC77A77EE277A77EE8B
:1019C000867A9FED0E6A86EE267ADDE71B6BC3F3FF
:1019D000080307EE103AB8EEC77A77EE277A77EE6B
:1019E000867A9FED076AEEE706487DE700440258D5
:1019F00000093D000090D0030024744A0024744C78
:101A000020BCBE4B40787D012DE9F0410D460446D7
:101A100010B90120BDE8F081884A136803F00F0374
:101A20008B42C0F0928023685E0700F19A802368A1
:101A300018070BD5824A6069D16901F070018842AC
:101A400004D9D36923F070030343D3612368D90613
:101A50000BD57B4AA069D16901F4E061884204D9C1
:101A6000D36923F4E0630343D36123689A060BD55B
:101A7000734AE069116A01F07001884204D9136A5F
:101A800023F070030343136223689B070BD56C4A52
:101A9000E068916901F00F01884204D9936923F04D
:101AA0000F03034393612368DF0768D423689E070D
:101AB00000F19B80614A136803F00F03AB4200F210
:101AC000A2802368580700F1AA80236819070BD564
:101AD0005B4A6069D16901F07001884204D2D36920
:101AE00023F070030343D3612368DA060BD5544A0D
:101AF000A069D16901F4E061884204D2D36923F47A
:101B0000E0630343D36123689B060BD54C4AE0692D
:101B1000116A01F07001884204D2136A23F0700345
:101B200003431362FFF7D4FE454B464A9B69C3F358
:101B30000323D35C03F01F03D840434B1860434B8F
:101B4000BDE8F0411868FEF75BBF136823F00F0390
:101B50000B431360136803F00F038B427FF459AFFC
:101B600061E7374A2069916901F0700188427FF688
:101B70005EAF936923F070030343936157E7304BE3
:101B8000A1689A6922F470620A439A6161681A68CE
:101B900002291DD112F4003F3FF43BAF1A6941F214
:101BA0008838274E22F007020A431A61FEF788FFA1
:101BB00007463369626803F03803B3EBC20F3FF4A2
:101BC00075AFFEF77DFFC01B4045F2D9032021E72A
:101BD000032902D112F0007FDEE7012902D112F4BD
:101BE000807FD9E712F0040FD6E7154AE0689169C3
:101BF00001F00F018842BFF45DAF936923F00F033A
:101C00000343936156E7136823F00F032B431360DC
:101C1000136803F00F03AB427FF4FBAE51E7084AB1
:101C20002069916901F070018842BFF44EAF936959
:101C300023F070030343936147E700BF0020005285
:101C400000440258201E0008000000200C00002064
:101C5000DFF834D0002103E00C4B5B5843500431D3
:101C60000B480C4B42189A42F6D30B4A02E0002371
:101C700042F8043B094B9A42F9D3FEF783FE00F089
:101C800011F8FEF729FB704700000220401E0008F3
:101C9000000000203C0400203C040020D004002070
:101CA000FEE7000070B50D4E0D4D761BB61006D048
:101CB0000024013455F8043B9847A642F9D1094E57
:101CC000094D761B00F0A0F8B61006D000240134B0
:101CD00055F8043B9847A642F9D170BD341E000860
:101CE000341E00083C1E0008341E0008024B13B1CD
:101CF000024800F005B87047000000000D1D000804
:101D0000002301461A46184600F01EB838B50A4CA2
:101D10000A4D641BA4100AD004F18043013B05EB7B
:101D20008305013C55F804399847002CF9D1BDE8EA
:101D3000384000F06FB800BF401E00083C1E00088D
:101D4000704700BF704700BF2DE9F8432B4D064692
:101D5000286898460F469146FFF7F2FF284B1C680B
:101D6000D4F84831002B3DD05A681F2A0DDC02F10F
:101D7000010C16BB0232C3F804C0286843F8227075
:101D8000FFF7E0FF0020BDE8F8831E4B7BB34FF464
:101D9000C870AFF30080034648B3D4F8482100214F
:101DA000C0E900214FF0010CC4F848010A46C0F810
:101DB0008811C0F88C11002EDCD003EB82010124C5
:101DC000C1F88890D3F8880194402043022EC3F8CC
:101DD0008801C1F80881CDD1D3F88C110C43C3F828
:101DE0008C41C7E704F5A673C4F84831BCE72868FE
:101DF000FFF7A8FF4FF0FF30C5E700BF3804002011
:101E0000301E000800000000F8B500BFF8BC08BC98
:101E10009E467047F8B500BFF8BC08BC9E467047A8
:101E20000000000001020304010203040607080980
:101E300010000020ED1C0008BD02000899020008F7
:101E40000090D0030090D0030100000010000000BB
:101E500000000000FC02002064030020CC030020EE
:101E60000000000000000000000000000000000072
:101E70000000000000000000000000000000000062
:101E80000000000000000000000000000000000052
:101E90000000000000000000000000000000000042
:101EA0000000000000000000000000000000000032
:101EB0000000000000000000000000000000000022
:101EC0000000000000000000000000000000000012
:101ED0000000000000000000000000000000000002
:101EE00000000000000000000000000000000000F2
:101EF00000000000000000000100000000000000E1
:101F00000E33CDAB34126DE6ECDE05000B000000A5
:101F100000000000000000000000000000000000C1
:101F200000000000000000000000000000000000B1
:101F300000000000000000000000000000000000A1
:101F40000000000000000000000000000000000091
:0C2270000000000000000000AC04002092
:0200000490006A
:1000000000000824D1C000907358009075580090EB
:1000100077580090795800907B58009000000000BD
:1000200000000000000000000000000031B200905D
:100030007D58009000000000C1B2009025B30090F0
:1000400021C1009021C1009021C1009021C10090E8
:1000500021C1009021C1009021C1009021C10090D8
:1000600021C1009021C1009021C1009021C10090C8
:1000700021C1009021C1009021C1009021C10090B8
:1000800021C1009021C1009021C1009021C10090A8
:1000900021C1009021C1009021C1009021C1009098
:1000A00021C1009021C1009021C1009021C1009088
:1000B00021C1009021C1009021C1009021C1009078
:1000C00021C1009021C1009021C1009021C1009068
:1000D00021C1009021C1009021C1009021C1009058
:1000E00021C1009021C100900000000021C10090BA
:1000F00021C1009021C1009021C1009021C1009038
:1001000021C1009021C1009021C1009021C1009027
:1001100021C1009021C100908158009021C1009020
:1001200021C1009021C1009021C1009021C1009007
:1001300021C1009021C1009021C1009021C10090F7
:1001400000000000000000000000000000000000AF
:1001500021C1009021C1009021C1009021C10090D7
:1001600021C1009021C1009021C1009021C10090C7
:1001700021C1009021C1009021C1009021C10090B7
:1001800021C1009021C1009021C1009021C10090A7
:1001900021C1009021C1009021C1009021C1009097
:1001A0008D58009021C100909958009021C1009075
:1001B00021C1009021C1009021C1009021C1009077
:1001C00021C1009021C1009021C1009021C1009067
:1001D00021C1009021C1009021C1009021C1009057
:1001E00021C1009021C1009021C1009021C1009047
:1001F00021C1009021C1009021C1009021C1009037
:1002000021C1009021C1009021C1009021C1009026
:1002100021C1009021C1009021C1009021C1009016
:1002200021C1009021C1009021C100900000000078
:1002300021C1009021C100900000000021C1009068
:1002400021C1009021C1009021C1009021C10090E6
:1002500021C1009021C1009021C1009021C10090D6
:1002600021C1009021C1009021C1009021C10090C6
:1002700021C1009021C1009021C100900000000028
:1002800021C1009021C1009021C100900000000018
:080290000000000021C10090F4
:1002A00010B5054C237833B9044B13B10448AFF3B0
:1002B00000800123237010BD4C02002400000000C8
:1002C000CC10029008B5034B1BB103490348AFF3B0
:1002D000008008BD0000000050020024CC100290F5
:1002E00001F0FF01102A2BDB10F0070F08D010F8E7
:1002F000013B013A8B422DD010F0070F42B3F6D1EB
:10030000F0B441EA012141EA014122F007047FF003
:1003100000070023F0E80256083C85EA010586EA5A
:10032000010685FA47F5A3FA87F586FA47F6A5FA96
:1003300087F68EB9EED1F0BC01F0FF0102F00702A2
:1003400032B110F8013B013A83EA010313B1F8D14D
:100350000020704701387047002D06BF354603382E
:10036000073815F0010F07D1013015F4807F02BF67
:10037000013015F4C03F0130F0BC0138704700BFB8
:100380007047704770477047704701F072B910B5F9
:1003900004464FF496711FF0AFFE204610BD0000DA
:1003A00010B5044601F02CFA014B2046236010BD25
:1003B00084110290704704387047704710B50446A6
:1003C00010211FF099FE204610BDA0F10400F5E7B2
:1003D0000022C1608260044A10B502F10804203294
:1003E0000460426010BD00BFB01102907047043835
:1003F0007047704710B5044610211FF07DFE20465F
:1004000010BDA0F10400F5E70022C1608260044A3B
:1004100010B502F1080420320460426010BD00BF34
:10042000D81102907047704701F0DFBA10B504464A
:100430004FF405711FF060FE204610BD10B5044654
:1004400001F020FB014B2046236010BD08120290F2
:1004500070470438704770477047704710B50446BE
:1004600010211FF049FE204610BDA0F10400F5E761
:1004700010B5044608211FF03FFE204610BD0000C5
:100480000022C1608260044A10B502F108042032E3
:100490000460426010BD00BF44120290E74B01228D
:1004A0001A200D214FF03F0C2DE9F04F03274FF09C
:1004B000050E02263D251F76042783F830E04FF015
:1004C000060E07241A701E732822232683F8247030
:1004D0004FF0770B5B2783F83CE04FF0930E5C8086
:1004E0004FF0AF089D804FF00A0AD8804FF0CB093B
:1004F0001A815981DE811D8258829A82D982A3F89D
:100500001AC09D83D8831A845984DF841D85588539
:100510009A85D985A3F832B09D86D8861A875987DF
:10052000A3F83EE04FF0080EA3F84A804FF0E7082A
:1005300083F854E04FF0090E83F86CA040F2031AE0
:1005400083F860E04FF00B0EA3F8405083F878E09A
:1005500040F21F1EA3F84200A3F84420A3F846105F
:1005600083F84840A3F84C50A3F84E00A3F850205D
:10057000A3F85210A3F85690A3F85850A3F85A00C5
:10058000A3F85C20A3F85E10A3F86280A3F864507F
:10059000A3F86600A3F86820A3F86A10A3F86EA079
:1005A000A3F87050A3F87200A3F87420A3F8761093
:1005B000A3F87AE04FF00E0EA3F87C504FF00C0534
:1005C000A3F87E00A3F88020A3F8B6B04FF0110B7B
:1005D00083F884504FF01005A3F886406924A3F8EF
:1005E00092600F2683F8C0B04FF0930BA3F88210EF
:1005F000A3F88840A3F88A00A3F88C20A3F88E10F3
:1006000083F89010A3F89440A3F89600A3F89820DC
:10061000A3F89A1083F89CE0A3F89EC0A3F8A0402A
:10062000A3F8A200A3F8A420A3F8A61083F8A8605A
:10063000A3F8AA70A3F8AC40A3F8AE00A3F8B020CA
:10064000A3F8B21083F8B450A3F8B840A3F8BA00E6
:10065000A3F8BC20A3F8BE10A3F8C2B04FF0120B51
:10066000A3F8F2A04FF0160A83F8CCB04FF0AF0B0E
:1006700083F8FCA040F21F1A5D46A3F8CEB04FF0FD
:10068000130BA3F8C440A3F8C60083F8D8B04FF00A
:10069000140BA3F8C82083F8E4B04FF0150BA3F8AF
:1006A000CA10A3F8D040A3F8D200A3F8D420A3F82E
:1006B000D610A3F8DA90A3F8DC40A3F8DE00A3F884
:1006C000E020A3F8E210A3F8E680A3F8E840A3F83E
:1006D000EA00A3F8EC20A3F8EE1083F8F0B04FF096
:1006E000770BA3F8F440A3F8F600A3F8F820A3F8DA
:1006F000FA10A3F8FEA0A3F800411724A3F8020102
:10070000A3F80421A3F81671192783F8084195244A
:1007100083F820711B27A3F80AC14FF0180CA3F827
:1007200022B14FF0930B83F838711C27A3F8061100
:10073000A3F80C41A3F80E01A3F81021A3F812119D
:10074000A3F81841A3F81A01A3F81C21A3F81E115D
:10075000A3F82441A3F82601A3F82821A3F82A111D
:1007600083F82C01A3F82EB1A3F83041A3F832018D
:10077000A3F83421A3F83611A3F83A514FF00C0531
:10078000A3F83C41A3F83E01A3F84021A3F842118D
:1007900083F844711D2783F814C1A3F84691A3F888
:1007A0004E11A3F85A111E21A3F8484183F85C1199
:1007B0003E21A3F84A01A3F85E11C121A3F84C2100
:1007C000A3F86011FC2183F85071A3F862114FF077
:1007D0001001A3F85281A3F85441A3F85601A3F8DD
:1007E00058211748A3F86421A3F86611154C164B3D
:1007F00016499E819D83A3F82CE0C3E90010C3E94C
:1008000004400021124C996099619962C3E9084043
:1008100010484FF00A0383824FF49A734682C382D2
:100820000D4B0283C3614FF6FF73C16205844362BF
:100830000A4A0B49BDE8F04F14E000BF98020024BB
:100840003800280002019500680200240500950088
:100850000500C100040000243C12029000000024A6
:100860005B0400901FF043BC7047704701F0A0BAD2
:1008700038B500F5BA700A4C00F0DEFC094B0546AD
:100880001B7803EBC30304EB830413F07DF9421CD4
:100890002946204692B2BDE8384013F08EB900BF19
:1008A00098050024E005002410B504464FF4487173
:1008B0001FF022FC204610BD38B5044601F0B8FAFE
:1008C0000E4B04F5BA752360284600F0C5FB0C4AB0
:1008D000D4F874312846C4F878214FF4A0715B6BCA
:1008E0009847D4F874312846F0219B6B9847201D17
:1008F00029460BF043FD204638BD00BF741202901C
:1009000050001000E74B01221A200D214FF03F0C40
:100910002DE9F04F03274FF0050E02263D251F76E7
:10092000042783F830E04FF0060E07241A701E7378
:100930002822232683F824704FF0770B5B2783F857
:100940003CE04FF0930E5C804FF0AF089D804FF07D
:100950000A0AD8804FF0CB091A815981DE811D82A5
:1009600058829A82D982A3F81AC09D83D8831A84A8
:100970005984DF841D8558859A85D985A3F832B0BE
:100980009D86D8861A875987A3F83EE04FF0080E57
:10099000A3F84A804FF0E70883F854E04FF0090EBF
:1009A00083F86CA040F2031A83F860E04FF00B0E5E
:1009B000A3F8405083F878E040F21F1EA3F84200ED
:1009C000A3F84420A3F8461083F84840A3F84C50FD
:1009D000A3F84E00A3F85020A3F85210A3F85690A5
:1009E000A3F85850A3F85A00A3F85C20A3F85E10AF
:1009F000A3F86280A3F86450A3F86600A3F8682007
:100A0000A3F86A10A3F86EA0A3F87050A3F87200C0
:100A1000A3F87420A3F87610A3F87AE04FF00E0E36
:100A2000A3F87C504FF00C05A3F87E00A3F88020BB
:100A3000A3F8B6B04FF0110B83F884504FF01005B7
:100A4000A3F886406924A3F892600F2683F8C0B00B
:100A50004FF0930BA3F88210A3F88840A3F88A0004
:100A6000A3F88C20A3F88E1083F89010A3F894407C
:100A7000A3F89600A3F89820A3F89A1083F89CE0B6
:100A8000A3F89EC0A3F8A040A3F8A200A3F8A42056
:100A9000A3F8A61083F8A860A3F8AA70A3F8AC4046
:100AA000A3F8AE00A3F8B020A3F8B21083F8B450B6
:100AB000A3F8B840A3F8BA00A3F8BC20A3F8BE106E
:100AC000A3F8C2B04FF0120BA3F8F2A04FF0160A31
:100AD00083F8CCB04FF0AF0B83F8FCA040F21F1AA4
:100AE0005D46A3F8CEB04FF0130BA3F8C440A3F8B3
:100AF000C60083F8D8B04FF0140BA3F8C82083F8D1
:100B0000E4B04FF0150BA3F8CA10A3F8D040A3F837
:100B1000D200A3F8D420A3F8D610A3F8DA90A3F853
:100B2000DC40A3F8DE00A3F8E020A3F8E210A3F86D
:100B3000E680A3F8E840A3F8EA00A3F8EC20A3F8C5
:100B4000EE1083F8F0B04FF0770BA3F8F440A3F861
:100B5000F600A3F8F820A3F8FA10A3F8FEA0A3F873
:100B600000411724A3F80201A3F80421A3F8167189
:100B7000192783F80841952483F820711B27A3F8CF
:100B80000AC14FF0180CA3F822B14FF0930B83F871
:100B900038711C27A3F80611A3F80C41A3F80E0125
:100BA000A3F81021A3F81211A3F81841A3F81A0111
:100BB000A3F81C21A3F81E11A3F82441A3F82601D1
:100BC000A3F82821A3F82A1183F82C01A3F82EB149
:100BD000A3F83041A3F83201A3F83421A3F8361169
:100BE000A3F83A514FF00C05A3F83C41A3F83E019D
:100BF000A3F84021A3F8421183F844711D2783F81C
:100C000014C1A3F84691A3F84E11A3F85A111E215E
:100C1000A3F8484183F85C113E21A3F84A01A3F8E8
:100C20005E11C121A3F84C21A3F86011FC2183F8C7
:100C30005071A3F862114FF01001A3F85281A3F88C
:100C40005441A3F85601A3F858211748A3F864218A
:100C5000A3F86611154C164B16499E819D83A3F887
:100C60002CE0C3E90010C3E904400021124C996054
:100C700099619962C3E9084010484FF00A038382E2
:100C80004FF49A734682C3820D4B0283C3614FF6C1
:100C9000FF73C162058443620A4A0B49BDE8F04F05
:100CA00014E000BF30040024380028000201950041
:100CB00000040024050095000500C1003400002454
:100CC0003C120290000000245B0400901FF00FBA59
:100CD00000220260704770477047043870477047C1
:100CE00010B5044610211FF007FA204610BDA0F1F0
:100CF0000400F5E70022C1608260044A10B502F1E9
:100D0000080420320460426010BD00BFA4120290AB
:100D100070477047014B1970704700BFE005002411
:100D200001F0B1B9F8B500F664060446304612F099
:100D30002BFF20B304F26445284612F025FF05EB93
:100D40004007304612F020FF31460246384612F086
:100D500034FF284612F018FF05EB4006084812F051
:100D600020FF07490246304612F039FF284612F0AC
:100D70000BFF00F50C70002304EB4004A380F8BDCA
:100D80003156029010B504460D4812F0FDFE88B1B0
:100D900004F664033222002118461FF02EFA312295
:100DA000074912F00AFF002304F53C70A4F8C63886
:100DB00011F05AFA04F50170BDE8104011F054BA70
:100DC0009805002410B5044640F6E8011FF094F998
:100DD000204610BD10B5044601F090FA014B2046A4
:100DE000236010BDD4120290704700F59673086816
:100DF000496803C37047704710B504464FF4AC719F
:100E00001FF07AF9204610BD10B50446D0F8540101
:100E1000FFF761FF2046BDE8104010F0BFB910B5E4
:100E20000446D0F83C0158B10368DB68984738B1F4
:100E3000D4F83C0103689B6898470023C4F83C3110
:100E400010BD000010B5044601F0DCFE014B204649
:100E5000236010BD141302900020704781807047FA
:100E6000C18070470181704741817047704770476A
:100E7000704770477047C388D21A8388C91A0368BD
:100E800012B209B210B45DF8044B1B6D18474FF64F
:100E9000FF7383814FF0FF3303621368C3611060F7
:100EA0007047806A704790F825201AB190F8242086
:100EB00002B11860704770477047704730B4C5681A
:100EC000034644686A10ED079B6804EB020048BFC4
:100ED000A25830BC48BFD358184743682BB1836829
:100EE0002BB9C06800F00100704718467047012018
:100EF000704710B4C468034641686210E4079B68F9
:100F000001EB020048BF8A585DF8044B48BFD35834
:100F1000184743682BB183682BB9C06800F0010003
:100F20007047184670470120704710B504461021DD
:100F30001FF0E2F8204610BD10B504464FF4D671FC
:100F40001FF0DAF8204610BD10B5044610211FF03E
:100F5000D3F8204610BD70B50368044615465B6B98
:100F600098472368294620469B6BBDE87040184788
:100F700037B50446134B00F5967094F8A82104F198
:100F80002C05009382B10E236946ADF804300DF0B4
:100F9000E2FD94F8A9312BB10B4928460EF085FDEE
:100FA00003B030BD0949F8E70D236946ADF80430B8
:100FB0000DF0D1FD94F8A9310BB10549EDE70549D4
:100FC000EBE700BF3C12029000160290F815029069
:100FD000F0150290E815029038B5B0F8625004465A
:100FE000A5B105F183030022691E20F813202C30DF
:100FF00089B20EF056FD012D08D184F8AA51204681
:1010000084F8A951BDE83840FFF7B2BF38BD90F869
:10101000A93183F0010380F8A931FFF7A9BF90F847
:10102000A83190F8AA2183F0010380F8A8312AB1F1
:1010300023B1012380F8A931FFF79ABF0023F9E714
:1010400090F8AA213AB131B1002280F8AA2180F8A3
:10105000A921FFF78DBF70472DE9F843002506460B
:101060000127664B04468580C580058104F5847997
:10107000458104F596788581C58105824582C561E3
:1010800080F8245080F825708562C0E9055546F83F
:101090002C3B30460EF010FA594B5A4A3046C4F8F1
:1010A0002C31594BC4F87021C4F854314FF6FF73FA
:1010B000564AA4F858314FF47F035549C4F86031BB
:1010C000544BC4F8802104F5B472C4F86831C4F8F4
:1010D0007831C4F88831504BA4F83051C4F89031BD
:1010E0004E4BA4F83251A4F83451A4F83651A4F868
:1010F0003851A4F83A51A4F83C51A4F83E51C4F830
:101100004051C4F84451C4F8485184F8505184F80F
:101110005171C4F85C5184F8645184F86551C4F885
:101120006C41C4F87451C4F87C41C4F88451C4F8CB
:101130008C41C4F89451C4F89831394BC4F89C419F
:10114000C4F8A031CB68C4F8A45184F8A87184F81D
:10115000A95184F8AA519A6004F5BC72CB689A61CF
:1011600004F5C4729A620EF031FA04F5CC73F022E1
:101170004FF4A071A36530462563FFF7ECFE3046BF
:101180000EF05AFA24222946484611F0B9F91222E3
:10119000494630460EF00EFA224B84F8A9712822F7
:1011A000C4F83031382184F8AA714046FFF7D3FEE5
:1011B0001D4B1B682BB91D4B35211D4A1D481EF0C8
:1011C000A7FF93F876200AB1D86C00B99868036835
:1011D0009D6AFF2319461A46A847C4F85C012046B9
:1011E000FFF7C6FE314620460BF0C8F820464146C0
:1011F0000BF0C4F82046BDE8F88300BF88130290C6
:101200001C3A02900F1000903C120290D90F0090EF
:1012100064000024581302901F1000907013029075
:10122000411000900500C400183E012408160290E9
:10123000881602904B160290C06D7047E74B012252
:101240001A200D214FF03F0C2DE9F04F03274FF0EE
:10125000050E02263D251F76042783F830E04FF067
:10126000060E07241A701E732822232683F8247082
:101270004FF0770B5B2783F83CE04FF0930E5C80D8
:101280004FF0AF089D804FF00A0AD8804FF0CB098D
:101290001A815981DE811D8258829A82D982A3F8EF
:1012A0001AC09D83D8831A845984DF841D8558858C
:1012B0009A85D985A3F832B09D86D8861A87598732
:1012C000A3F83EE04FF0080EA3F84A804FF0E7087D
:1012D00083F854E04FF0090E83F86CA040F2031A33
:1012E00083F860E04FF00B0EA3F8405083F878E0ED
:1012F00040F21F1EA3F84200A3F84420A3F84610B2
:1013000083F84840A3F84C50A3F84E00A3F85020AF
:10131000A3F85210A3F85690A3F85850A3F85A0017
:10132000A3F85C20A3F85E10A3F86280A3F86450D1
:10133000A3F86600A3F86820A3F86A10A3F86EA0CB
:10134000A3F87050A3F87200A3F87420A3F87610E5
:10135000A3F87AE04FF00E0EA3F87C504FF00C0586
:10136000A3F87E00A3F88020A3F8B6B04FF0110BCD
:1013700083F884504FF01005A3F886406924A3F841
:1013800092600F2683F8C0B04FF0930BA3F8821041
:10139000A3F88840A3F88A00A3F88C20A3F88E1045
:1013A00083F89010A3F89440A3F89600A3F898202F
:1013B000A3F89A1083F89CE0A3F89EC0A3F8A0407D
:1013C000A3F8A200A3F8A420A3F8A61083F8A860AD
:1013D000A3F8AA70A3F8AC40A3F8AE00A3F8B0201D
:1013E000A3F8B21083F8B450A3F8B840A3F8BA0039
:1013F000A3F8BC20A3F8BE10A3F8C2B04FF0120BA4
:10140000A3F8F2A04FF0160A83F8CCB04FF0AF0B60
:1014100083F8FCA040F21F1A5D46A3F8CEB04FF04F
:10142000130BA3F8C440A3F8C60083F8D8B04FF05C
:10143000140BA3F8C82083F8E4B04FF0150BA3F801
:10144000CA10A3F8D040A3F8D200A3F8D420A3F880
:10145000D610A3F8DA90A3F8DC40A3F8DE00A3F8D6
:10146000E020A3F8E210A3F8E680A3F8E840A3F890
:10147000EA00A3F8EC20A3F8EE1083F8F0B04FF0E8
:10148000770BA3F8F440A3F8F600A3F8F820A3F82C
:10149000FA10A3F8FEA0A3F800411724A3F8020154
:1014A000A3F80421A3F81671192783F8084195249D
:1014B00083F820711B27A3F80AC14FF0180CA3F87A
:1014C00022B14FF0930B83F838711C27A3F8061153
:1014D000A3F80C41A3F80E01A3F81021A3F81211F0
:1014E000A3F81841A3F81A01A3F81C21A3F81E11B0
:1014F000A3F82441A3F82601A3F82821A3F82A1170
:1015000083F82C01A3F82EB1A3F83041A3F83201DF
:10151000A3F83421A3F83611A3F83A514FF00C0583
:10152000A3F83C41A3F83E01A3F84021A3F84211DF
:1015300083F844711D2783F814C1A3F84691A3F8DA
:101540004E11A3F85A111E21A3F8484183F85C11EB
:101550003E21A3F84A01A3F85E11C121A3F84C2152
:10156000A3F86011FC2183F85071A3F862114FF0C9
:101570001001A3F85281A3F85441A3F85601A3F82F
:1015800058211748A3F86421A3F86611154C164B8F
:1015900016499E819D83A3F82CE0C3E90010C3E99E
:1015A00004400021124C996099619962C3E9084096
:1015B00010484FF00A0383824FF49A734682C38225
:1015C0000D4B0283C3614FF6FF73C1620584436212
:1015D0000A4A0B49BDE8F04F14E000BF140600248E
:1015E0003800280002019500E4050024050095005C
:1015F0000500C100640000243C1202900000002499
:101600005B0400901EF073BD70470438704770474C
:1016100010B5044610211EF06FFD204610BDA0F14C
:101620000400F5E70022C1608260044A10B502F1AF
:10163000080420320460426010BD00BFE41602902E
:101640007047704702F0B5BA10B504464FF4967172
:101650001EF052FD204610BD10B5044602F0E0FA1F
:10166000014B2046236010BD14170290704770474D
:1016700070477047704730B4C568034644686A10C5
:10168000ED079B6804EB020048BFA25830BC48BF7E
:10169000D358184743682BB183682BB9C06800F052
:1016A00001007047184670470120704710B5044686
:1016B00010211EF021FD204610BD10B504464FF448
:1016C00096711EF019FD204610BDD430884208B531
:1016D00005D10FF023FEBDE8084001F0DBBA08BDDC
:1016E00070B5036804461546DB6A984723682946A7
:1016F00020461B6BBDE87040184770B504461E4677
:10170000BDF91050FFF7ECFF2368314620465A6BB5
:1017100090472368294620469B6BBDE870401847D8
:10172000F8B54FF6FF73018F0646994232D01B4B36
:101730001B682BB91A4BB1211A4A1B481EF0E8FC52
:101740001A4A12888A4203D8194BB221154AF4E783
:1017500013F81120174B1B6853F82250164B1868CA
:1017600002F032FE2B68074601469B6A28469847DE
:101770002B68044639461B6C2846984714FB00F436
:101780002B683946E4B228465B6A9847204486F8BD
:101790004500F8BD002380F84530FAE7683E012493
:1017A00058170290C01802909A1702906C3E0124BC
:1017B000DB170290703E0124743E012413460C4A4C
:1017C00070B5146805462CB90A4B35210A4A0B48F6
:1017D0001EF09EFC94F876200AB1E06C00B9A06877
:1017E0000268946A0A462946A446BDE870406047EC
:1017F000183E012408160290641802904B160290BD
:101800002DE9F04F044687B0002511F06DF8A14690
:101810006F4BE56304F16C0849F8403B06AE6D4B35
:101820004FF0010B4FF6FF77A4F844502364FF23D9
:1018300026F8087D40463146A4F84650A4F84850A2
:1018400004F1980AA4F84A50A4F84C50A4F84E5059
:10185000A4F85050A4F85250E56584F8645084F818
:1018600065B084F86630A566C4E915550CF0A0FD96
:10187000594BA4F8C47004F1D407C4F89830574BFE
:101880003846A4F89C50C4F8C0304FF47F03A4F845
:101890009E50A4F8A050A4F8A250A4F8A450A4F814
:1018A000A650A4F8A850A4F8AA50C4F8B45084F8DC
:1018B000BC5084F8BDB04FF4887BC4F8C850C4F85D
:1018C000CC3084F8D05084F8D150C4E92B550DF0B9
:1018D00031FD434BC4F828512A46C4F81C3129462F
:1018E000404B4846C4F82041C4F824314FF4F0730B
:1018F000CDF800B0FFF701FF2A4629462846FFF73A
:101900005DFF3146A0664046ADF810500DF0CCFBAF
:101910004FF4F0732A4629464046CDF800B0FFF751
:10192000ECFE294640460CF009FD5046FE220721F8
:10193000FFF7D6FE2A4629462846FFF73FFF274BEA
:10194000C4F8C800314604930323A4F8CC50504691
:10195000ADF814300DF0FFF8384606220721FFF7E6
:10196000BFFE0423324603A93846ADF80C30ADF86B
:1019700010300DF032F906233846A4F80C31FFF789
:10198000CFFE2A4629462846FFF718FF2A46C4F804
:10199000100129462846251DFFF710FF04F58E7318
:1019A000C4F814014946C4F8FC3028460AF0E6FCA5
:1019B000414628460AF0E2FC514628460AF0DEFC81
:1019C000284639460AF0DAFC204607B0BDE8F08F19
:1019D00038180290C43A02901C3A02903C120290CD
:1019E00048170290CB16009070477047704730B48C
:1019F000C568034644686A10ED079B6804EB020063
:101A000048BFA25830BC48BFD358184743682BB1D1
:101A100083682BB9C06800F0010070471846704712
:101A20000120704710B5044610211EF065FB2046CA
:101A300010BD10B504464FF405711EF05DFB204645
:101A400010BD08B500F59673994205D10FF066FCFC
:101A5000BDE8084001F02EB900F5BA73994205D1EE
:101A60000FF05CFCBDE8084001F054B900F5DE70F1
:101A7000814205D10FF052FCBDE8084001F05AB98F
:101A800008BD00002DE9F04F04468BB0002510F092
:101A90002BFF2246BF4BE5630AAE42F8403B4FF0B6
:101AA000010ABD4B04F16C094FF6FF7704F1980869
:101AB0002364FF2326F8087D484684F866303146C3
:101AC000A4F8445004F5BA7BA4F84650A4F8485052
:101AD000A4F84A50A4F84C50A4F84E50A4F8505022
:101AE000A4F85250E56584F8645084F865A0A566B2
:101AF0000592C4E915550CF05BFC31464046ADF843
:101B000020700CF055FC04F1C4033146ADF8207090
:101B1000184602930CF04CFC04F1F00304F59672A5
:101B2000A4F8F45004939D4B1046A4F8F650C4F862
:101B3000F0309B4BA4F8F850C4F818314FF47F03F1
:101B4000A4F8FA50C4F82431A4F8FC50A4F8FE50CC
:101B5000A4F80051A4F80251C4F80451C4F8085183
:101B6000C4F80C5184F8145184F815A1A4F81C7120
:101B700004F5DE77C4F8205184F8285184F82951FF
:101B800003920DF0D7FB58460DF0D4FB38460DF00C
:101B9000D1FB844B4FF48872C4F81052C4F804325D
:101BA0002946814B00922A46C4F80C324FF4F07358
:101BB0000598C4F80842FFF7A0FD2A4629462846A2
:101BC000FFF7FCFD3146A0664846ADF820500DF009
:101BD0006BFA4FF488724FF4F0732946484600922E
:101BE0002A46FFF78AFD294648460CF0A7FB062344
:101BF00031464046ADF820300DF056FA9923362292
:101C00004046112100936023FFF777FD29464046A7
:101C10000CF094FB052331460298ADF820300DF00E
:101C200043FABB234C2202984FF4B57100936D2305
:101C3000FFF763FD294602980CF080FB0498FE2212
:101C40000721FFF74DFD2A4629462846FFF7B6FD36
:101C5000534BC4F820013146A4F82451049808934A
:101C6000ADF824A00CF077FF039834228E21FFF703
:101C700037FD324607A90398ADF81CA0ADF820A0A7
:101C80000CF0ABFF0723039804F5017AA4F8643144
:101C9000FFF746FD2A4629462846FFF78FFD2A46CC
:101CA000C4F8680129462846FFF788FDC4F854A106
:101CB000C4F86C01712258468E21FFF711FD0223F2
:101CC000324607A95846ADF81C30ADF820300CF06C
:101CD00084FF08235846A4F8AC31FFF721FD2A46BB
:101CE00029462846FFF76AFD2A46C4F8B00129466E
:101CF0002846FFF763FDC4F89CA1C4F8B401AC22E8
:101D000038468E21FFF7ECFC0323324607A93846FC
:101D1000ADF81C30ADF820300CF05FFF09233846D9
:101D2000A4F8F431FFF7FCFC2A4629462846FFF7C1
:101D300045FD2A46C4F8F80129462846251DFFF727
:101D40003DFD0599C4F8FC012846C4F8E4A10AF059
:101D500015FB494628460AF011FB414628460AF081
:101D60000DFB029928460AF009FB049928460AF05F
:101D700005FB039928460AF001FB594628460AF05C
:101D8000FDFA284639460AF0F9FA20460BB0BDE8BC
:101D9000F08F00BF10190290C43A02901C3A0290D2
:101DA0003C120290F8180290431A00907047704756
:101DB0007047704730B4C568034644686A10ED0741
:101DC0009B6804EB020048BFA25830BC48BFD35800
:101DD000184743682BB183682BB9C06800F0010035
:101DE0007047184670470120704710B5044610210F
:101DF0001EF082F9204610BD10B504464FF4BA71AA
:101E00001EF07AF9204610BD00F1D402914208B5C7
:101E100005D10FF083FABDE8084000F05BBF00F584
:101E20008E72914203D10368DB6A9847F1E708BDDF
:101E30002DE9F04F044689B0002510F055FDA2466B
:101E4000894BE56308AE4AF8403B04F16C09874BC7
:101E50004FF001084FF6FF77A4F844502364FF23A6
:101E600026F8087D48463146A4F84650A4F8485064
:101E70004FF4887BA4F84A50A4F84C50A4F84E5074
:101E8000A4F85050A4F85250E56584F8645084F8E2
:101E9000658084F86630A566C4E915550CF088FAAB
:101EA00004F1980384F8BD8004F1D4080293704BC8
:101EB0004046A4F8C47004F58E77C4F898306D4B92
:101EC000A4F89C50C4F8C0304FF47F03A4F89E508F
:101ED000C4F8CC30A4F8A050A4F8A250A4F8A450A0
:101EE000A4F8A650A4F8A850A4F8AA50C4F8B45076
:101EF00084F8BC50C4F8C85084F8D05084F8D1504D
:101F0000C4E92B550DF016FA38460DF013FA5A4B6A
:101F1000C4F870512A46C4F864312946574B5046DC
:101F2000CDF800B0C4F86C314FF4F073C4F86841D8
:101F3000FFF7E3FB2A4629462846FFF73FFC3146D8
:101F4000A0664846ADF818500DF0AEF84FF4F073A7
:101F50002A46CDF800B0294648464FF0040BFFF75B
:101F6000CCFB294648460CF0E9F90298FE220721ED
:101F7000FFF7B6FB2A4629462846FFF71FFC3D4BD4
:101F8000C4F8C800314606930F23A4F8CC50029839
:101F9000ADF81C300CF0DFFD404606220721FFF7AC
:101FA0009FFB324605A94046ADF814B0ADF818B015
:101FB0000CF013FE10234046A4F80C31FFF7B0FBE1
:101FC0002A4629462846FFF7F9FB2A46C4F810019D
:101FD00029462846FFF7F2FB04F5B273C4F8140152
:101FE000EE22C4F8FC30384640F293110393FFF719
:101FF00077FB05A932463846ADF814B0ADF818B0F5
:102000000CF0EBFD11223846A4F85421FFF788FBB1
:102010002A4629462846FFF7D1FB2A46C4F858012C
:102020002946284604EB0B05FFF7C8FB039BC4F8C1
:102030005C015146C4F8443128460AF09FF94946EC
:1020400028460AF09BF9029928460AF097F941467A
:1020500028460AF093F9284639460AF08FF92046B7
:1020600009B0BDE8F08F00BF5C190290C43A02903D
:102070001C3A02903C12029044190290091E0090F2
:10208000704770477047704790F82C302BB1C26E84
:10209000C26523B1436F03667047826EF8E7036F32
:1020A000F9E770477047704730B4C5680346446825
:1020B0006A10ED079B6804EB020048BFA25830BCD1
:1020C00048BFD358184743682BB183682BB9C06801
:1020D00000F001007047184670470120704730B487
:1020E000C568034644686A10ED079B6804EB02006C
:1020F00048BFA25830BC48BFD358184743682BB1DB
:1021000083682BB9C06800F001007047184670471B
:102110000120704790F82D3080F85A30704710B584
:10212000044678211DF0E8FF204610BD10B5044696
:1021300010211DF0E1FF204610BD10B5044610210E
:102140001DF0DAFF204610BD10B5044640F6E80148
:102150001DF0D2FF204610BD08B503681B6B9847E1
:102160000FF0DCF8BDE8084000F0C4BD10B504462F
:10217000006B50B10368DB68984730B1206B214693
:102180000368BDE810409B68184710BD00F51E723B
:10219000914203D103680021DB6A184700F5707291
:1021A000914202D103685B6B184770470B7970B599
:1021B00004460E4690F82C5053B955B13379012B93
:1021C00017D123682046D3F88030BDE87040184707
:1021D0007DB1B3FA83F320465B0984F82C30236881
:1021E000D3F884309847236820465B699847002DD0
:1021F000E4D170BDD430884208B505D10FF08EF817
:10220000BDE8084000F046BD08BD0000094A026074
:1022100000228280C280028142818281C281028248
:102220004282C26180F82420C0E90522012280F8A0
:1022300025207047B841029010B50446262200219F
:102240001DF0DBFF2046FFF7E1FF044B2046236033
:10225000FF2384F826300023A36210BDC43A029005
:1022600010B50446262200211DF0C7FF2046FFF7C7
:10227000CDFF094B4FF47F0220462360074BA3623A
:102280004FF6FF73A3850023C4E90C3284F838307D
:1022900084F8393010BD00BF1C3A02903C12029005
:1022A00070B50446FFF7B2FFFF230025264684F8E9
:1022B0002D300123A56284F824300E4B84F82C5075
:1022C000256346F8343B3046FFF7B6FF0A4B2A46F3
:1022D0002946636330462566A4F86450C4E91A555C
:1022E000C4E91C55FFF7FCF9204631460AF046F8D0
:1022F000204670BD94190290683C02902DE9F04F81
:10230000044695B0002510F0EFFA2246934BE563A2
:1023100014AE42F8403B10460B924FF6FF77FFF7A2
:102320008BFF04F16C0326F8087D314618460393B1
:102330000CF03EF804F1980304F50178DFF85092B0
:1023400018460793FFF78CFF04F1D40304F5876B5D
:1023500004F2644A184604930CF0ECFF04F58E7303
:1023600018460C93FFF768FF04F5A473184605930D
:102370000AF048FC4046FFF773FF04F51173C4F8F8
:1023800004921846C4F840520D93FFF755FF744B62
:10239000C4F87052C4F8443204F51E73A4F87452A1
:1023A00018460893FFF77CFF04F53C731846099321
:1023B000FFF756FF04F54C73C4F8F09204F55E790C
:1023C0001846C4F82C5306930CF0B4FF48460CF0A2
:1023D000B1FF04F5707318460A93FFF761FF3146A9
:1023E0005846ADF848700BF0E3FF5E4B4FF488772A
:1023F0002A46C4F8C83829465B4B0097C4F8D03841
:102400005A4B0B98C4F8D838594BC4F8CC48C4F888
:10241000E0384FF4F073C4F8D458C4F8DC48C4F87A
:10242000E458FFF76AF92A4629462846FFF7C6F915
:102430003146A0660398ADF848500CF035FE4FF4D5
:10244000F0732A460097294603980427FFF755F9A9
:10245000294603980BF072FFFE2207210798FFF729
:102460003FF92A4629462846FFF7A8F9414BC4F808
:10247000C8003146129312230798A4F8CC50ADF847
:102480004C300CF068FB062207210498FFF728F96E
:10249000324611A90498ADF84470ADF848700CF0BC
:1024A0009CFB0498A4F80C71FFF73AF92A462946D8
:1024B0002846FFF783F92A46C4F810012946284622
:1024C000FFF77CF904F6C803C4F814013822C4F8F5
:1024D000FC30AF2307210C98009340F2D313FFF791
:1024E0000CF92A4629462846FFF768F9BD23C4F8A7
:1024F00044012A220093072140F2D3130598FFF7E5
:10250000FCF8FF2211461046FFF758F901460598DE
:102510000AF06CFF4FF4C7730F2239460093404610
:1025200040F2CB13FFF7E9F8FF2211461046FFF700
:1025300045F9114BC4F834021B68A4F838522BB982
:102540000E4BB1210E4A0F481DF0E2FD0E4B1B88C9
:10255000162B1FD80D4BB221094AF4E75C1A0290E2
:10256000683C0290281A0290F5210090401A0290CF
:102570008D2100903C120290683E01245817029071
:10258000941A02909A1702906C3E0124DB17029075
:10259000C03B0290BD4B1621186801F015FFBC4AE4
:1025A00003464FF40071504611F07EFEB94A1323E2
:1025B0004046C4F840A231461292ADF84C300CF0BF
:1025C000CAFA41464FF0110805980AF04EF840F259
:1025D000D313272207210D98CDF80080FFF78DF83F
:1025E000FF2211461046FFF7E9F82A46C4F86C02AC
:1025F00029462846FFF7E2F84FF0010140F2B713F1
:10260000C4F870028A46A4F874122A46294604F5D2
:102610002B70CDF80080FFF770F8FF22A4F8DCA241
:1026200011461046FFF7CAF8FF220F9011461046D8
:10263000FFF7C4F82A460E9029462846FFF7BEF851
:102640002A46824629462846FFF7B8F80F9B0E997E
:10265000C4F8E032C4F8E412C4F8E8A204F6640A4C
:10266000C4F8EC020898FFF70FFD40F2B7132722D9
:1026700007210898CDF80080FFF73FF804F6D8004E
:102680004FF4D47329220E900B21C4F8A8020F2016
:1026900000900998FFF731F829462A462846FFF7A7
:1026A0008DF87D49C4F820030B68A4F82453002B4F
:1026B0003FF446AF79490B88152B7FF64BAF734B30
:1026C0001521186801F080FE714A034632215046F8
:1026D00011F0EAFD14236F4A3146C4F82CA309987F
:1026E000ADF84C3012920CF036FA0698EE2240F219
:1026F0009311FEF7F5FF11AB324606981946ADF877
:102700004470ADF848700CF068FA0A230698A4F8F3
:102710006833FFF705F82A4629462846FFF74EF8A2
:102720002A46C4F86C0329462846FFF747F8EE22EC
:10273000C4F870034FF4A3714846FEF7D1FF11AB04
:10274000324648461946ADF84470ADF848700CF072
:1027500044FA0B234846A4F8B033FEF7E1FF2A46BB
:1027600029462846FFF72AF82A46C4F8B403294622
:102770002846FFF723F81D23C4F8B8032A46294644
:1027800004F57D70CDF80080FEF7B7FFFF224FF013
:1027900001011046A4F824141146FFF70FF8FF2298
:1027A000824611461046FFF709F82A460F9029463F
:1027B0002846FFF703F82A46294607462846FEF72B
:1027C000FDFF0F9BC4F83404C4F82C340A98C4F8F5
:1027D00028A4C4F83074FFF757FC27220A981D2359
:1027E000CDF8008040F2BD11FEF787FF0E9B314609
:1027F0005846C4F8F0330723ADF848300CF054FCC9
:102800000F232822584640F2C31100934346FEF797
:1028100074FF2946251D58460BF090FD0B9928465C
:1028200009F0ACFD0399284609F0A8FD0799284650
:1028300009F0A4FD0499284609F0A0FD0C9928464A
:1028400009F09CFD0599284609F098FD0D99284648
:1028500009F094FD0899284609F090FD0999284649
:1028600009F08CFD0699284609F088FD494628465E
:1028700009F084FD0A99284609F080FD284659464A
:1028800009F07CFD204615B0BDE8F08F743E0124B0
:10289000501A02903C120290683E01246C3E0124C2
:1028A000704770474160704770470123037270475B
:1028B000704770477047704770477047044B084631
:1028C00000221988036849421B6D09B2184700BFEE
:1028D0000C3E012430B4C568034644686A10ED0715
:1028E0009B6804EB020048BFA25830BC48BFD358D5
:1028F000184743682BB183682BB9C06800F001000A
:102900007047184670470120704700000B68084662
:10291000024900221B6DB1F9001018470C3E01243A
:1029200030B4C568034644686A10ED079B6804EB41
:10293000020048BFA25830BC48BFD358184743686C
:102940002BB183682BB9C06800F0010070471846AE
:1029500070470120704710B4C46803464168621094
:10296000E4079B6801EB020048BF8A585DF8044BFE
:1029700048BFD358184743682BB183682BB9C06848
:1029800000F001007047184670470120704710B5ED
:1029900004460C211DF0B0FB204610BD10B50446C6
:1029A0004FF4AC711DF0A8FB204610BD10B50446D5
:1029B00010211DF0A1FB204610BD10B50446542186
:1029C0001DF09AFB204610BD10B5044610211DF0E5
:1029D00093FB204610BD10B5044654211DF08CFB1E
:1029E000204610BD10B5044610211DF085FB204681
:1029F00010BD10B50EF092FC0368BDE810401B6BD3
:102A0000184710B4826B0B468A4209D00A68B0F9A5
:102A100050101846146D002223465DF8044B1847E9
:102A20005DF8044B704710B4826B0B468A4209D0A4
:102A30000A68B0F950101846146D002223465DF85C
:102A4000044B18475DF8044B70470000054B1B789A
:102A50003BB143682BB11A6800F10C011846126EA5
:102A600010477047173E0124054B1B783BB1436864
:102A70002BB11A6800F10C011846126E104770470E
:102A8000173E01241F4B10B51B78044613B90123D0
:102A9000037210BD90F84D0094F84C300130C0B274
:102AA000984284F84D0024D8B4F94E20002110F04B
:102AB0009CF883B213F0010221D04FF6FF71002879
:102AC000D8BF0A461344A4F85030B4F8501004F1AB
:102AD0000C00238A0022C91A09B2A4F850100FF082
:102AE000F3FB606804F13C010368BDE810405B6FD4
:102AF000184701232372002384F84D30C9E7A4F856
:102B00005000E2E7173E01241F4B10B51B78044626
:102B100013B90123037210BD90F84D0094F84C30A6
:102B20000130C0B2984284F84D0024D8B4F94E2048
:102B3000002110F05AF883B213F0010221D04FF6B1
:102B4000FF710028D8BF0A461344A4F85030B4F8E7
:102B5000501004F10C00238A0022C91A09B2A4F80B
:102B600050100FF0B1FB606804F13C010368BDE850
:102B700010405B6F184701232372002384F84D3007
:102B8000C9E7A4F85000E2E7173E01241FB50C4B3B
:102B900004461B788BB10B4B1C226946CDE90030F3
:102BA00040680123CDE9022303685B6F98476068A2
:102BB00004F10C010368DB6D984704B010BD00BF41
:102BC000173E0124901B02901FB50C4B04461B7846
:102BD0008BB10B4B1C226946CDE9003040680123C4
:102BE000CDE9022303685B6F9847606804F10C012C
:102BF0000368DB6D984704B010BD00BF173E012489
:102C00004C1B0290F8B5044617460E460EF0F0FB3A
:102C1000144B0025C4F854611C602946124B134E16
:102C20002360134B3068C4F83851C4F83C51C4F8E1
:102C30004031C4F84451C4F84851C4F84C51C4F868
:102C4000507103689B689847284601F083FB3368FE
:102C500093F876200AB1D86C00B9986816F0E1F8BC
:102C60002046F8BD643E0124E41A0290183E012477
:102C7000CC1A0290064BC0F84401C0F8483100233A
:102C8000C0F84C3100F5A073C0F83C31704700BF6C
:102C9000952E0090064BC0F84401C0F8483100233F
:102CA000C0F84C3100F5A073C0F83C31704700BF4C
:102CB00069300090064BC0F84401C0F84831002349
:102CC000C0F84C3100F5A073C0F83C31704700BF2C
:102CD000A9330090064BC0F84401C0F848310023E6
:102CE000C0F84C3100F5A073C0F83C31704700BF0C
:102CF000C9310090064BC0F84401C0F848310023A8
:102D0000C0F84C3100F5A073C0F83C31704700BFEB
:102D100005350090064BC0F84401C0F84831002347
:102D2000C0F84C3100F5A073C0F83C31704700BFCB
:102D300061360090064BC0F84401C0F848310023CA
:102D4000C0F84C3100F5A073C0F83C31704700BFAB
:102D5000BD3700902DE9F0470746906899468846B0
:102D600003681546DDF820A01B6A9847B0F5057F7B
:102D700005D2424BA721424A42481DF0C9F9686872
:102D800003681B6A98470F2803D83F4BA8213C4A89
:102D9000F2E7E86803681B6A98470B2803D83B4BA7
:102DA000A921374AE8E70EF0B9FA0EF005FBD9F889
:102DB000000010B10368DB689847D9F8000010B133
:102DC00003681B689847386810B103685B699847C7
:102DD000D8F8000010B103685B689847386810B1F4
:102DE00003681B689847D8F8000010B103689B6817
:102DF0009847E868002103685B6A9847044620B159
:102E0000002343600372224B0360A868002103681B
:102E10005B6A9847064608B1FDF710FB6868002119
:102E200003685B6A9847054610B13146FDF7ECFA36
:102E3000C9F80040C8F800503E60E5B12B1DCAF843
:102E400000303046C5F808A03368F563DB68984762
:102E50002B6828461B689847214630460FF0BFFE76
:102E6000236820461B699847236820465B6998477A
:102E70002846BDE8F0872B46E1E700BFCC1B029057
:102E8000862302905A1C02909B1C02903E1D0290C9
:102E9000281B029007B5D0F8543100F59C710093BF
:102EA000044BD0F850210448FFF754FF03B05DF8FD
:102EB00004FB00BF583E0124543E0124F8B500260F
:102EC0000546164B044646600F46067245F80C3B15
:102ED00028460BF017FA124B2022A56384F84C7099
:102EE00084F84D60A4F85060C4E90F340123C4E9AC
:102EF00011230C4B1B787BB10B4B28460B4FB3F9BE
:102F00000020B7F900102661FEF725F828460BF0DF
:102F100075F93B88A4F84E302046F8BDA81B0290F6
:102F2000901B0290173E01240E3E01240C3E01240A
:102F30002DE9F0470746906899468846036814468D
:102F4000DDF820A01B6A9847B0F5057F05D2414BFC
:102F5000A721414A41481DF0DBF8606803681B6AFD
:102F600098470F2803D83E4BA8213B4AF2E7E06878
:102F700003681B6A9847532803D83A4BA921364A5D
:102F8000E8E70EF0CBF90EF017FAD9F8000010B10F
:102F90000368DB689847D9F8000010B103681B6824
:102FA0009847386810B103685B699847D8F8000003
:102FB00010B103685B689847386810B103681B68F4
:102FC0009847D8F8000010B103689B689847E068FC
:102FD000002103685B6A9847054610B11421FFF78A
:102FE0006DFFA068002103685B6A9847064608B138
:102FF000FDF724FA6068002103685B6A984704467D
:1030000010B13146FDF700FAC9F80050C8F8004089
:103010003E60E4B1231DCAF800303046C4F808A071
:103020003368F463DB689847236820461B68984739
:10303000294630460FF0D3FD2B6828461B69984778
:103040002B6828465B6998472046BDE8F0872346F1
:10305000E1E700BFCC1B0290842402905A1C02902E
:103060009B1C02903E1D029007B5D0F8543100F52C
:103070009C710093044BD0F850210448FFF758FF8F
:1030800003B05DF804FB00BF583E0124543E012408
:103090002DE9F0470746906899468846036814462C
:1030A000DDF820A01B6A984740F6E703984205D850
:1030B000404BA721404A41481DF02AF86068036848
:1030C0001B6A98470F2803D83D4BA8213A4AF2E7DC
:1030D000E06803681B6A9847532803D8394BA92135
:1030E000354AE8E70EF01AF90EF066F9D9F8000053
:1030F00010B10368DB689847D9F8000010B1036885
:103100001B689847386810B103685B699847D8F81E
:10311000000010B103685B689847386810B1036815
:103120001B689847D8F8000010B103689B6898475F
:10313000E068002103685B6A9847054610B11421D6
:10314000FFF7BCFEA068002103685B6A984706464B
:1031500008B1FDF73FFE6068002103685B6A98478D
:10316000044610B13146FDF7C5FDC9F80050C8F856
:1031700000403E60E4B1231DCAF800303046C4F878
:1031800008A03368F463DB689847236820461B680F
:103190009847294630460FF022FD2B6828461B69C8
:1031A00098472B6828465B6998472046BDE8F0871A
:1031B0002346E1E7CC1B0290001F02905A1C0290AC
:1031C0009B1C02903E1D029007B5D0F8543100F5CB
:1031D0009C710093044BD0F850210448FFF758FF2E
:1031E00003B05DF804FB00BF583E0124543E0124A7
:1031F00003685B6A18470000F8B500260546174BC0
:10320000044646600F46067245F80C3B28460BF014
:1032100079F8134B2022A56384F84C7084F84D6034
:10322000A4F85060C4E90F340123C4E911230D4B05
:103230001B7883B10C4B28460C4FB3F90020B7F92B
:1032400000102661FDF787FE28460AF0D7FF3B886D
:103250005B42A4F84E302046F8BD00BF641B0290CC
:103260004C1B0290173E01240E3E01240C3E01240B
:103270002DE9F0470746906899468846036814464A
:10328000DDF820A01B6A984740F6E703984205D86E
:10329000404BA721404A41481CF03AFF6068036850
:1032A0001B6A98470F2803D83D4BA8213A4AF2E7FA
:1032B000E06803681B6A9847532803D8394BA92153
:1032C000354AE8E70EF02AF80EF076F8D9F8000053
:1032D00010B10368DB689847D9F8000010B10368A3
:1032E0001B689847386810B103685B699847D8F83D
:1032F000000010B103685B689847386810B1036834
:103300001B689847D8F8000010B103689B6898477D
:103310000021E068FFF76CFF054610B11421FFF7AC
:103320006BFFA068002103685B6A9847064608B1F6
:10333000FDF750FD6068002103685B6A984704460A
:1033400010B13146FDF7D6FCC9F80050C8F800406E
:103350003E60E4B1231DCAF800303046C4F808A02E
:103360003368F463DB689847236820461B689847F6
:10337000294630460FF033FC2B6828461B699847D6
:103380002B6828465B6998472046BDE8F0872346AE
:10339000E1E700BFCC1B0290E11D02905A1C029095
:1033A0009B1C02903E1D029007B5D0F8543100F5E9
:1033B0009C710093044BD0F850210448FFF758FF4C
:1033C00003B05DF804FB00BF583E0124543E0124C5
:1033D0002DE9F047074690689946884603681446E9
:1033E000DDF820A01B6A9847B0F5487F05D2404B16
:1033F000A721404A40481CF08BFE606803681B6AA6
:1034000098470F2803D83D4BA8213A4AF2E7E068D5
:1034100003681B6A9847532803D8394BA921354ABA
:10342000E8E70DF07BFF0DF0C7FFD9F8000010B101
:103430000368DB689847D9F8000010B103681B687F
:103440009847386810B103685B699847D8F800005E
:1034500010B103685B689847386810B103681B684F
:103460009847D8F8000010B103689B68984700217E
:10347000E068FFF7BDFE054610B11421FFF7BCFE62
:10348000A068002103685B6A9847064608B1FDF70B
:1034900013FA6068002103685B6A9847044610B11C
:1034A0003146FCF7EDFFC9F80050C8F800403E6017
:1034B000E4B1231DCAF800303046C4F808A03368D0
:1034C000F463DB689847236820461B6898472946C1
:1034D00030460FF084FB2B6828461B6998472B6801
:1034E00028465B6998472046BDE8F0872346E1E718
:1034F000CC1B0290402102905A1C02909B1C02900F
:103500003E1D029007B5D0F8543100F59C71009330
:10351000044BD0F850210448FFF75AFF03B05DF880
:1035200004FB00BF583E0124543E01242DE9F0471E
:10353000074690689946884603681446DDF820A03F
:103540001B6A9847B0F5967F05D2404BA721404AA9
:1035500040481CF0DDFD606803681B6A98470F282F
:1035600003D83D4BA8213A4AF2E7E06803681B6A9A
:103570009847532803D8394BA921354AE8E70DF07D
:10358000CDFE0DF019FFD9F8000010B10368DB681B
:103590009847D9F8000010B103681B68984738684D
:1035A00010B103685B699847D8F8000010B1036850
:1035B0005B689847386810B103681B689847D8F86B
:1035C000000010B103689B6898470021E068FFF78E
:1035D0000FFE054610B11421FFF70EFEA068002172
:1035E00003685B6A9847064608B1FEF735F86068DD
:1035F000002103685B6A9847044610B13146FEF724
:1036000011F8C9F80050C8F800403E60E4B1231D2D
:10361000CAF800303046C4F808A03368F463DB68A9
:103620009847236820461B689847294630460FF084
:10363000D6FA2B6828461B6998472B6828465B6991
:1036400098472046BDE8F0872346E1E7CC1B02906F
:103650006F2202905A1C02909B1C02903E1D029009
:1036600007B5D0F8543100F59C710093044BD0F8A5
:1036700050210448FFF75AFF03B05DF804FB00BF78
:10368000583E0124543E01242DE9F0470746906836
:103690009946884603681446DDF820A01B6A9847BF
:1036A000B0F5967F05D2404BA721404A40481CF018
:1036B0002FFD606803681B6A98470F2803D83D4BAD
:1036C000A8213A4AF2E7E06803681B6A9847532842
:1036D00003D8394BA921354AE8E70DF01FFE0DF05C
:1036E0006BFED9F8000010B10368DB689847D9F881
:1036F000000010B103681B689847386810B1036870
:103700005B699847D8F8000010B103685B68984778
:10371000386810B103681B689847D8F8000010B1EA
:1037200003689B6898470021E068FFF761FD054644
:1037300010B11421FFF760FDA068002103685B6AE7
:103740009847064608B1FCF72BFE60680021036825
:103750005B6A9847044610B13146FCF739FEC9F858
:103760000050C8F800403E60E4B1231DCAF80030A4
:103770003046C4F808A03368F463DB6898472368D0
:1037800020461B689847294630460FF028FA2B68D8
:1037900028461B6998472B6828465B69984720464E
:1037A000BDE8F0872346E1E7CC1B02901F20029082
:1037B0005A1C02909B1C02903E1D029007B5D0F847
:1037C000543100F59C710093044BD0F8502104480B
:1037D000FFF75AFF03B05DF804FB00BF583E012419
:1037E000543E0124E74B01221A200D214FF03F0CDB
:1037F0002DE9F04F03274FF0050E02263D251F76D9
:10380000042783F830E04FF0060E07241A701E7369
:103810002822232683F824704FF0770B5B2783F848
:103820003CE04FF0930E5C804FF0AF089D804FF06E
:103830000A0AD8804FF0CB091A815981DE811D8296
:1038400058829A82D982A3F81AC09D83D8831A8499
:103850005984DF841D8558859A85D985A3F832B0AF
:103860009D86D8861A875987A3F83EE04FF0080E48
:10387000A3F84A804FF0E70883F854E04FF0090EB0
:1038800083F86CA040F2031A83F860E04FF00B0E4F
:10389000A3F8405083F878E040F21F1EA3F84200DE
:1038A000A3F84420A3F8461083F84840A3F84C50EE
:1038B000A3F84E00A3F85020A3F85210A3F8569096
:1038C000A3F85850A3F85A00A3F85C20A3F85E10A0
:1038D000A3F86280A3F86450A3F86600A3F86820F8
:1038E000A3F86A10A3F86EA0A3F87050A3F87200B2
:1038F000A3F87420A3F87610A3F87AE04FF00E0E28
:10390000A3F87C504FF00C05A3F87E00A3F88020AC
:10391000A3F8B6B04FF0110B83F884504FF01005A8
:10392000A3F886406924A3F892600F2683F8C0B0FC
:103930004FF0930BA3F88210A3F88840A3F88A00F5
:10394000A3F88C20A3F88E1083F89010A3F894406D
:10395000A3F89600A3F89820A3F89A1083F89CE0A7
:10396000A3F89EC0A3F8A040A3F8A200A3F8A42047
:10397000A3F8A61083F8A860A3F8AA70A3F8AC4037
:10398000A3F8AE00A3F8B020A3F8B21083F8B450A7
:10399000A3F8B840A3F8BA00A3F8BC20A3F8BE105F
:1039A000A3F8C2B04FF0120BA3F8F2A04FF0160A22
:1039B00083F8CCB04FF0AF0B83F8FCA040F21F1A95
:1039C0005D46A3F8CEB04FF0130BA3F8C440A3F8A4
:1039D000C60083F8D8B04FF0140BA3F8C82083F8C2
:1039E000E4B04FF0150BA3F8CA10A3F8D040A3F829
:1039F000D200A3F8D420A3F8D610A3F8DA90A3F845
:103A0000DC40A3F8DE00A3F8E020A3F8E210A3F85E
:103A1000E680A3F8E840A3F8EA00A3F8EC20A3F8B6
:103A2000EE1083F8F0B04FF0770BA3F8F440A3F852
:103A3000F600A3F8F820A3F8FA10A3F8FEA0A3F864
:103A400000411724A3F80201A3F80421A3F816717A
:103A5000192783F80841952483F820711B27A3F8C0
:103A60000AC14FF0180CA3F822B14FF0930B83F862
:103A700038711C27A3F80611A3F80C41A3F80E0116
:103A8000A3F81021A3F81211A3F81841A3F81A0102
:103A9000A3F81C21A3F81E11A3F82441A3F82601C2
:103AA000A3F82821A3F82A1183F82C01A3F82EB13A
:103AB000A3F83041A3F83201A3F83421A3F836115A
:103AC000A3F83A514FF00C05A3F83C41A3F83E018E
:103AD000A3F84021A3F8421183F844711D2783F80D
:103AE00014C1A3F84691A3F84E11A3F85A111E2150
:103AF000A3F8484183F85C113E21A3F84A01A3F8DA
:103B00005E11C121A3F84C21A3F86011FC2183F8B8
:103B10005071A3F862114FF01001A3F85281A3F87D
:103B20005441A3F85601A3F858211748A3F864217B
:103B3000A3F86611154C164B16499E819D83A3F878
:103B40002CE0C3E90010C3E904400021124C996045
:103B500099619962C3E9084010484FF00A038382D3
:103B60004FF49A734682C3820D4B0283C3614FF6B2
:103B7000FF73C162058443620A4A0B49BDE8F04FF6
